:060000000A128A1100291A
:1002000035215121031383128501031383128701C2
:100210000D211221861B1721082906182621861870
:10022000302108000619212186192B210800861B80
:10023000091005080707A200221A09140F398800BF
:1002400008005E2106192229870A08005E21061887
:100250002729850A08005E2186192C2987030800B2
:100260005E2186183129850308008316031788014B
:100270008901831603138501061486140615861555
:1002800086178316031387018316031388018316C9
:1002900003138901831203138501870188018901F2
:1002A0000800031383160F178F120F120F14080084
:1002B000C830A2005E21A20B5A290800A530A00078
:0602C000A00B60290800FC
:04400E00C430FF3F7C
:00000001FF
